:020000040800F2
:1000000000040020C1010008B1040008B104000888
:10001000B1040008B1040008B1040008B1040008EC
:10002000B1040008B1040008B1040008D1030008BD
:10003000B1040008B1040008B1040008B1040008CC
:10004000B1040008B1040008B1040008B1040008BC
:10005000B1040008B1040008B1040008B1040008AC
:10006000B1040008B1040008B1040008B10400089C
:10007000B1040008B1040008B1040008B10400088C
:10008000B1040008B1040008B1040008B10400087C
:10009000B1040008B1040008B1040008B10400086C
:1000A000B1040008B1040008B1040008B10400085C
:1000B00031030008B1040008B1040008B1040008CD
:1000C000B1040008B1040008B1040008B10400083C
:1000D000B1040008B1040008210C0008B1040008B4
:1000E000B1040008B1040008B1040008B10400081C
:1000F000B1040008B1040008B1040008B10400080C
:10010000B1040008B1040008B1040008B1040008FB
:10011000B1040008B1040008B1040008B1040008EB
:10012000B1040008B1040008B1040008B1040008DB
:10013000B1040008B1040008B1040008B1040008CB
:10014000B1040008B1040008B1040008B1040008BB
:10015000B1040008B1040008B1040008B1040008AB
:10016000B1040008B1040008B1040008B10400089B
:10017000B1040008B1040008B1040008B10400088B
:10018000B1040008B1040008B1040008B10400087B
:10019000B1040008B1040008B1040008B10400086B
:1001A000B1040008B1040008B1040008B10400085B
:1001B000B1040008B1040008B1040008B10400084B
:1001C00072B6264880F3098825484EF60851CEF2CB
:1001D00000010860022080F31488BFF36F8F01F0E4
:1001E0001FFB00F065FA4FF055301E491E4A914240
:1001F0003CBF41F8040BFAE71C49184A91423CBF46
:1002000041F8040BFAE71A491A4A1B4B9A423EBFBF
:1002100051F8040B42F8040BF8E700201749184A7C
:1002200091423CBF41F8040BFAE701F0B9FA01F042
:10023000EFFA144C144DAC4203DA54F8041B88470F
:10024000F9E704F0FDF9114C114DAC4203DA54F812
:10025000041B8847F9E701F0D3BA0000000800202A
:10026000000000080000002000040020000400201E
:1002700044740008000800207C080020800800204A
:1002800020130020C0010008C0010008C0010008C0
:10029000C00100082DE9F04FC1F80CD0C3689D469D
:1002A000BDE8F08F002383F311882846A047002083
:1002B00000F09EFF00F054FB00DFFEE700000000AE
:1002C000024AD36843F08003D36070470044004083
:1002D000202383F31188114B5B6813F4006302D170
:1002E00083F31188704780B400AFEFF309834FF0B8
:1002F000807243F8042CA3F1200282F30988084A93
:10030000116892698968926891428CBF054A064AD1
:1003100043F8082CBD4680BC704700BF00ED00E0EC
:1003200038120020B5020008B802000800000000E2
:100330002DE9F8434FF0804633699B0703D4BDE8AD
:10034000F843FFF7C5BF00253561202787F31188E3
:100350001B4C716AE369A26AD3F808E0881A7045F9
:1003600004F11C0819D31968D3F80C907244414564
:10037000A262C1F80480E161DD6008BFF56085F329
:1003800011881869C84787F31188E369716AA26AFE
:10039000D3F808E0881A8645E5D9434508D0724469
:1003A000521A4FF08043022A2CBF8A188A1C5A63C3
:1003B000002383F31188BDE8F843FFF789BF00BF2E
:1003C00038120020000000000000000000000000C3
:1003D00080B400AFEFF30983203383F3098800234F
:1003E00083F31188BD4680BC704700BF0000000049
:1003F00070B4202383F311880B4E0C4A33681568C0
:10040000013B4C420B444A1E111803EA04002140F0
:100410002B1A99429ABF091831600020002383F3F8
:10042000118870BC704700BFEC090020D80900207B
:10043000202383F3118890F82030072B0ED8DFE8B3
:1004400003F0280D0D2408040D08426A9368013357
:10045000936090E80C001A600268536010B40022A8
:100460004FF0FF3481680D4B446280F820201B68F8
:100470009A688A42FBD25A68426003600021106089
:10048000586081F3118810BC7047436A00221A60DB
:10049000E4E7002383F31188704700BF381200207F
:1004A000FEE700BF000000000000000000000000A8
:1004B000FEE700BF00000000000000000000000098
:1004C0000B4B30B403F114002025002453F8042B07
:1004D0004AB185F3118892F8211041F0040182F8A5
:1004E000211084F311888342F0D130BC704700BFE3
:1004F0008410002000000000000000000000000048
:10050000202383F31188064A064913688B4202D2DE
:10051000591C11601870002383F31188704700BFC5
:10052000801000208010002000000000000000006B
:1005300070B5017889B10A4D0446286803689B6844
:10054000984714F8011F0029F7D128680549036866
:1005500002221B68BDE870401847014DF5E700BF57
:100560006810002044610008000000000000000046
:10057000017859B138B5064D0446286803689B6870
:10058000984714F8011F0029F7D138BD704700BF04
:1005900068100020000000000000000000000000C3
:1005A00020B370B584B06D466C46134E00E014461F
:1005B000A6FB0023DB0803EB8301A0EB410000F165
:1005C00030012246C9B202F8011B1846002BEED1B9
:1005D000AA4209D9094E01E014F8011D30680368E8
:1005E0009B689847AC42F7D104B070BD034B1868C4
:1005F000036830219B681847CDCCCCCC6810002014
:10060000F0B40D4E0D4F35683B4605E013F8014B35
:1006100010F8012B944206D1AB42F7D3007810B901
:100620003760F0BC7047064C064A074B012020702B
:1006300010701960F0BC704780100020701000200E
:100640001D1300201C1300201813002000000000C0
:1006500048B910B4054A064C064B012020701070B2
:10066000196010BC70470020704700BF1C130020A9
:100670001D130020181300200000000000000000DF
:1006800070B5084D4C24286803682D219B68984755
:10069000013CF8D128680449036802221B68BDE8C0
:1006A00070401847681000204461000800000000F6
:1006B000324A334B4FF080504FF440411064196080
:1006C000136843F00103136013689907FCD593681E
:1006D0002A4923F003039360936893608B6813F0B7
:1006E0000C03FBD10A68254802F0F9020A608B600E
:1006F0000B6843F480330B6003689B03FCD5436FA6
:100700001E4A43F001034367536F9907FCD51D4B05
:10071000536013681A4943F0807313604B685A049E
:10072000FCD5164A13689B01FCD5174B17499160FD
:100730001A68174B9A4216D0164B40F205721A608F
:100740000E4A936843F002039360936803F00C032E
:10075000082BFAD1536C43F480435364536E43F433
:100760008043536670470C4A0C4B12689A42E3D19F
:10077000084B40F205121A60E2E700BF0038024061
:100780000070004008544007002004E000948838BE
:1007900011640020003C024000ED00E041C20F4126
:1007A00008B52022034682F31188006828B1026848
:1007B0001A60002383F3118808BD9A68002AF8D0D4
:1007C000586804219047002383F3118808BD00BFB7
:1007D000202383F31188044B9B695A6B10435863A1
:1007E000002383F3118870473812002000000000B6
:1007F000202383F31188024602E08B4207D01A4679
:1008000013689842F9D1002383F3118870470B686D
:100810001360002383F31188704700BF00000000BD
:100820000E4B0F4A5B68C168F0B48768566F426828
:10083000D0E90445DB1B9B1BE41845F100059342FE
:10084000026888BF436001319342C0E90445C1603A
:10085000836038BF0360F0BC704700BF001000E049
:10086000381200200000000000000000000000001E
:1008700070B5202383F31188124A10689469836845
:10088000A1688B4203D2002383F3118870BD0368F3
:100890001360012600255A6080F82060906184F87A
:1008A000205000E01B689A689142FBD95A68626048
:1008B0002360214614605C60FFF7ECFC002383F3A7
:1008C000118870BD381200200000000000000000F8
:1008D000836841691E4AF0B5456806690468C768BF
:1008E00043F8382C012003F8260C4FF0020E0020AC
:1008F00003F828EC03F8270C43F8304C43F82C5C41
:10090000A3F16C045569DFF84CE043F86C6C43F8D4
:10091000681C43F83C4CA3F14801A3F11C04A3F16B
:10092000200643F8100C43F8140C43F8407C43F8BD
:100930000C7C43F84CEC43F8345C08462961516167
:1009400043F8206C43F81C4C43F8184CF0BD00BF32
:1009500038120020A502000800000000000000007E
:100960000E4A1068036830B4012194695A6000256A
:1009700080F82010A1681360906184F8205000E096
:100980001B689A689142FBD35A68626023602146D3
:1009900014605C6030BCFFF77DBC00BF38120020E3
:1009A000044B1A689B6992689B689A4200D870470A
:1009B000FFF7D6BF38120020000000000000000042
:1009C00010B5202383F31188084B9B69DC6B996871
:1009D0008C4201D0814200D29860D863FFF7E0FFDB
:1009E000002383F31188204610BD00BF3812002079
:1009F000164B70B404469D694162A868A1688142A3
:100A00004FF000020CD884F820201B689A689142AD
:100A1000FBD95A686260236014605C6070BC7047E8
:100A200085F820201A46126891688842FBD95068E0
:100A3000686001262A600560556084F820602946B8
:100A400020469C6170BCFFF725BC00BF3812002017
:100A500008B5202383F3118883680133002B83605A
:100A600003DD002383F3118808BD03460068026894
:100A70001A6000215360FFF7BBFF002383F3118846
:100A800008BD00BF000000000000000000000000E2
:100A9000084B99691A6810B481F820001068186032
:100AA0000124436082F82040104610BC9A61FFF791
:100AB000F1BB00BF38120020000000000000000061
:100AC00010B5202383F311880C4CA269134653F808
:100AD0002C0F984209D00168D1620D224B6000238F
:100AE00080F8202083F3118810BD0E20FFF7D0FF7F
:100AF000A269D06A02F12C03EDE700BF3812002092
:100B0000202383F311888368013B002B836004DB7F
:100B10000020002383F31188704710B5084CA269A8
:100B2000506241685160034610600A6005205A60B7
:100B3000FFF7AEFFA369586A002383F3118810BD45
:100B4000381200200000000000000000000000003B
:100B500000228168084B10B4044680F820201B68EE
:100B60009A688A42FBD25A68626023602046146009
:100B70005C6010BC704700BF38120020000000000D
:100B80000E4B10B520229C6982F311886162026BC2
:100B9000626000F12C012160146090F82020046351
:100BA0000E2A07D00C20FFF773FF606A002383F33F
:100BB000118810BDFFF7CCFFF4E700BF381200200A
:100BC000436B90F8202019430A2A416309D00B2A6D
:100BD00000D07047436A8B43FBD100234362FFF789
:100BE000B7BF436A1942F8D1704700BF0000000048
:100BF00070B50468A0420FD006460D46E3682B434B
:100C0000E36015B12269134203D0A1686068FFF761
:100C1000D7FF2468A642F1D170BD00BF00000000DC
:100C20002DE9F0476E4D6E6FD6F80CA03368DA05EB
:100C300082B09CB200F18880202383F3118814F0E5
:100C40002F0F4DD0674F4FF0000907F1080807E05C
:100C5000A00673681DD43468A4B214F02F0F3FD0DF
:100C60002307F5D014F0080F0CBF00218021E00706
:100C700048BF41F02001A20748BF41F0400163078F
:100C800048BF41F480713846FFF7B2FFA006736891
:100C9000E1D56A6995F87840002A42D02A6A696AE3
:100CA0008A4248D069692340501C01312862696139
:100CB00013702A6AEB699A4201D3AB692B62EB6825
:100CC0004345C8D01A68EA601846C2F80480C3F8E1
:100CD0002490FFF73DFF3468A4B214F02F0FBFD16A
:100CE000002383F311881AF0800F01D022063AD432
:100CF000630611D5202383F311886A6CAB6C9A428A
:100D000056D04FF6BF730AEA03036FF04002F36058
:100D10000023326083F3118802B0BDE8F047FFF78B
:100D2000D7BA042138460193FFF762FF2A6A696A3D
:100D3000019B8A42B6D169690029B3D04FF4806122
:100D40003846FFF755FF86E7202383F311884FF4D9
:100D50000071281DFFF74CFF6FF480733360002390
:100D600083F3118868E7202383F31188AB6C6A6CE6
:100D70009A4225D0AA6B296C581C0132AA63A86438
:100D800088421F7801D3EB6BAB642B6B164A9342FE
:100D900009D0196829634FF0000E4A601846C3F85D
:100DA00024E0FFF7D5FE7760002383F311889FE7E7
:100DB000AB6B002BA5D010210A48FFF719FFA0E765
:100DC000AA6B002AD6D008210648FFF711FF4FF67C
:100DD0003F730AEA030343F04003F360E4E700BF14
:100DE0008408002088080020B408002000000000CB
:100DF000124B30B4044605689869E3688363A542E2
:100E000017D0C16B4BB11A68934203D092689142DC
:100E100038BF1146DB68002BF5D12B68AA6B8160C7
:100E2000236028465C60A560E260AC6330BCFFF7DD
:100E30008FBE0023AB6030BC704700BF381200206B
:100E4000174B70B59D69202383F311880468C3682C
:100E5000AB6384421DD0E96B4BB11A68934203D057
:100E60009268914238BF1146DB68002BF5D10346EA
:100E70002268A66BA96020461A6053609C60DE6001
:100E8000A363FFF765FEFFF78BFD002383F3118853
:100E900070BD0023A360002383F3118870BD00BFE1
:100EA00038120020000000000000000000000000D8
:100EB000304B826870B59C69002A56D0A16893684F
:100EC0009942054607D992F820309160062B33D01D
:100ED000072B1DD09BB12B4603E09968A268914275
:100EE00002D31B689D42F8D15A6862602360146087
:100EF0005C6065620620BDE87040FFF7C9BD92E8FE
:100F00000A001960116810464B60FFF721FEE2E706
:100F100092E80900186010684360566A334602E0A0
:100F20009868814202D81B689E42F9D15968516085
:100F300013600A605A60CEE792E8090018601068F2
:100F40004360566A334602E09868814202D81B68C3
:100F50009E42F9D15968516013600A605A60B268C4
:100F6000A16893688B42AED3B5E7A36BC36084607E
:100F7000A06370BD381200200000000000000000D7
:100F800008B5202383F31188FFF792FF002383F332
:100F9000118808BD000000000000000000000000F3
:100FA0002DE9F843174C002818BF044604F1100738
:100FB000384689469046FFF7E3FFA368F3B1002463
:100FC0002546264658681B68844206F101060544FA
:100FD00038BF0446002BF5D1B9F1000F02D0ED0067
:100FE000C9F80050B8F1000F02D0E400C8F8004082
:100FF0003846FFF725FF3046BDE8F8831C461D46FE
:101000001E46E9E7B01200200000000000000000CA
:10101000F8B550F8043C50F8085C0733DB0805F1DC
:10102000100740F8043C0646A0F10804083538468D
:10103000FFF7A6FF2B46AB421A6801D0A34202D2AB
:101040001AB1944201D31346F5E746F8082C1C6008
:1010500016E90500013204EBC20181420AD0596849
:101060004A1C03EBC202944212D03846BDE8F84055
:10107000FFF7E6BE4968114446F8041C54F83220D4
:1010800046F8082C59684A1C03EBC2029442ECD182
:1010900056F8042C01321144596056F8082C1A6095
:1010A0003846BDE8F840FFF7CBBE00BF00000000A7
:1010B000202282F3118890F82230013B80F8223000
:1010C000036A03F0FF130F2B03D0002383F311886F
:1010D00070474369016910B41961046900216361B3
:1010E00081F3118890F8213003F00303012B0CD019
:1010F000022B08D1036CC06982F311881A68026060
:10110000186081F3118810BC7047C06910BCFFF7EC
:101110007FBF00BF000000000000000000000000D2
:1011200038B50446202383F3118890F820300F2B24
:1011300007D0084B826A9B6909201A60A362FFF7F7
:10114000A7FC656A002383F311882046FFF7B0FFF0
:10115000284638BD381200200000000000000000C2
:1011600070B5064C002604F11405206810B1FFF795
:10117000D7FF26600434AC42F7D170BD8410002044
:1011800083680133002B836000DD704703681A68B1
:1011900002600021506018465962FFF7D9BC00BFB9
:1011A00070B5856881600135002D0CDC04466FF058
:1011B00001066068436863601C60FFF7C9FC013585
:1011C000012D4662F5D170BD000000000000000056
:1011D00008B5202383F31188FFF7E2FFFFF7E0FB58
:1011E000002383F3118808BD000000000000000008
:1011F00038B52022034682F31188104A9469A06A08
:10120000636204F12805854206D00368A362FFF7F4
:101210009FFCA06AA842F8D194F8223043B994F810
:1012200021309B0704D1636922691A6122695361E5
:101230000F20BDE83840FFF72BBC00BF381200205C
:10124000194BDA69824210B40FD0416802680A6013
:1012500002681C3300249A425160C46003D0816844
:1012600093680B44936010BC70471846116840F8AF
:101270001C1F002481424860D46011D094688868A3
:101280009A6A03194FF080448B60616A8A1A93420C
:10129000E9D99B1A022B2CBFCB188B1C6363E2E7A6
:1012A0004FF08043DC60DEE73812002000000000D1
:1012B000F0B41C4D2E46022956F81C4F03614FF026
:1012C000804738BF0221B442C2607B6A1CD0AA6A40
:1012D0009B1A5918A36812D32468C91AA3688B42B1
:1012E000FAD3636843600460186060608160A3683B
:1012F0004FF0FF32591AA1606A62F0BC7047994200
:10130000EDD20A447A63EAE7AB625E180022022358
:10131000E86128620460446081607E633A61FB603A
:10132000EBE700BF381200200000000000000000C2
:1013300030B54B1C87B012D00C4C0D4AA369054642
:1013400001A8FFF7B5FF2846FFF7A2FB049B13B1E6
:1013500001A8FFF775FFA369586A07B030BD034CB9
:10136000FFF796FBA369586A07B030BD381200201A
:101370003104000800000000000000000000000030
:1013800003468068421E002A9A6001DB00207047F5
:1013900010B459B1084A926953625C68052082E82A
:1013A000180022605A6010BCFFF7C2BF986010BCE2
:1013B0004FF0FF30704700BF3812002000000000DF
:1013C00061B1084B10B4024644689B69042083E86D
:1013D00014002360536010BCFFF7AABF4FF0FF302A
:1013E000704700BF3812002000000000000000001D
:1013F0002DE9F04F994683B004460D461646D0F8C5
:101400001C80202383F311884FF080420027526A0A
:10141000009309EB0203019309F1FF3BBA46A3686D
:10142000FBB16269A368511C013B6161A3602B7829
:101430001370236962699A4224BFE36863610135CE
:10144000B8F1000F01D02046C0478AF31188013E51
:1014500007F1010717D0009B83F31188A368002BC5
:10146000DFD11BF1030F12D84FF08042516A019A6D
:10147000511A894505D32046FFF7A2FF0028CED098
:10148000002383F31188384603B0BDE8F08F494646
:101490002046FFF795FF0028C1D0F1E700000000CB
:1014A0003030FFF7A5BF00BF0000000000000000C3
:1014B00030304FF0FF33FFF79BBF00BF000000004C
:1014C000F8B504460F461646202383F3118803E03F
:1014D000FFF776FF002819DBA56831462046002D6E
:1014E000F6D06269A368511C013B6161A36017706B
:1014F000236962699A4224BFE3686361E3690BB1BF
:1015000020469847002080F31188F8BD85F31188A4
:10151000F8BD00BF00000000000000000000000057
:101520003030FFF7CDBF00BF00000000000000001A
:1015300030304FF0FF32FFF7C3BF00BF00000000A4
:101540002DE9F04F994683B004460D461646D0F873
:101550001C80202383F311884FF080420027526AB9
:10156000009309EB0203019309F1FF3BBA46A3681C
:10157000FBB1A269A368511C013BA161A360137870
:101580002B702369A2699A4224BFE368A3610135E5
:10159000B8F1000F01D02046C0478AF31188013E00
:1015A00007F1010717D0009B83F31188A368002B74
:1015B000DFD11BF1030F12D84FF08042516A019A1C
:1015C000511A894505D32046FFF7FAFE0028CED0F0
:1015D000002383F31188384603B0BDE8F08F4946F5
:1015E0002046FFF7EDFE0028C1D0F1E70000000023
:1015F0000C30FFF7A5BF00BF000000000000000096
:101600000C304FF0FF33FFF79BBF00BF000000001E
:1016100070B5202304460E4683F3118803E0FFF7DC
:10162000CFFE00281ADBA56831462046002DF6D0F3
:10163000A169A36820694A1C013B8242A360A261A0
:1016400028BFE3680D7828BFA361E3690BB120468A
:101650009847002383F31188284670BD85F31188CD
:1016600070BD00BF0000000000000000000000008E
:101670000C30FFF7CDBF00BF0000000000000000ED
:101680000C304FF0FF31FFF7C3BF00BF0000000078
:1016900008B50146202383F311880820FFF748FE90
:1016A000002383F3118808BD000000000000000043
:1016B00010B5EFF30584C4F308041CB1002383F3D1
:1016C000118810BDFFF76CF984F3118810BD00BFBD
:1016D000EFF30583202383F3118870470000000097
:1016E000C20710B412D52C4A1168914242D000238F
:1016F0000968914203F10103FAD14C688C4236D05B
:101700006468944203F1FF33FAD183BB830714D595
:10171000214A144654F81C1FA14231D00023096805
:10172000A14203F10103FAD1126A8A421FD0526822
:10173000A24203F1FF33FAD1CBB910F0040014D068
:10174000154A1369934221D000201B69934200F18E
:101750000100FAD15969994209D04969914200F1D1
:10176000FF30FAD1003018BF012010BC70470120B3
:1017700010BC70475468944218BF0023C0D1C5E71D
:10178000126AA24218BF0023D1D1D6E75969994203
:101790004FF00000E1D1E8E738120020000000001F
:1017A000F0B5124F124D134C134B144907F1800E34
:1017B00000269C4211D904391A4651F8040F42F808
:1017C000040B9442F9D8DA43144424F0030404349B
:1017D00023449D4203D943F8046B9D42FBD8103744
:1017E000774502D297E83A00E3E7F0BDC46000080D
:1017F000201300202013002020130020C0740008B4
:10180000FEE700BF00000000000000000000000034
:10181000704700BF00000000000000000000000052
:10182000704700BF00000000000000000000000042
:10183000034B0022042159601A609A60704700BF70
:101840001808002000000000000000000000000058
:1018500000207047000000000000000000000000B1
:1018600070B40B4B0B4A1A6002F1100604250024D9
:1018700003F11C0003F110015E605D629C61DA609F
:101880009A60D86118621961596170BC704700BFD5
:1018900054080020F01200200000000000000000AA
:1018A000FFF7DEBF000000000000000000000000A5
:1018B000FFF7D6BF0000000000000000000000009D
:1018C00004F0E6BA00000000000000000000000084
:1018D000FFF7F6BF0000000000000000000000005D
:1018E000FFF7EEBF00000000000000000000000055
:1018F000F0B5574E574D012383B0336042244FF06B
:10190000FF31204604F0D4FAB0FA80F029464009AD
:10191000FEF79EFE013488B9462CF0D10223012146
:101920005820336004F0C4FAA0F1FF30B0FA80F020
:1019300048494009FEF78CFE054608B103B0F0BDEA
:10194000202383F31188444C636A002B7CDDA1685B
:1019500060680A1D013B82424FF058076362A26033
:1019600028BF23680F603D4828BFA360FFF708FC2D
:10197000002383F3118837492846FEF769FE0028C3
:10198000DCD10121582004F0BBFAA0F1FF30B0FAFD
:1019900080F030494009FEF75BFE05460028CDD1B6
:1019A000202383F31188626A002A4BDDE3682168F3
:1019B000043B013A8B426262E36002D26368043BFB
:1019C000E36058221A602548FFF7DAFB002383F30F
:1019D000118820492846FEF73BFE0028AED103239C
:1019E000336004F055FA042301210DEB030033604A
:1019F00004F0B6FAA0F1FF30B0FA80F015494009C2
:101A0000FEF726FE0546002898D1202383F311888F
:101A1000A269002A1ADDE3681148013AA2616268EE
:101A20001968019104339342E36024BF2368E360A3
:101A3000FFF7A6FB002383F3118806492846FEF72B
:101A400007FE7BE70125C1E7012591E70125F1E7C5
:101A50006C10002070620008540800206408002008
:101A600070080020000000000000000000000000DE
:101A70002DE9F043B84F012383B03B60202686F365
:101A80001188B64CB649606AA0F10400B0FA80F043
:101A90004009FEF7DDFD28B1002383F3118803B070
:101AA000BDE8F083054680F3118802233B6086F38E
:101AB000118804F0D5F985F3118886F31188606ADE
:101AC000A849A0F10400B0FA80F04009FEF7C0FD7B
:101AD000804620B185F3118803B0BDE8F08380F320
:101AE000118886F31188A0699F49B0FA80F04009F7
:101AF000FEF7AEFD054620B188F3118803B0BDE8BE
:101B0000F08380F3118886F311882068A3689749D1
:101B1000C01AB0FA80F04009FEF79AFD804600280E
:101B2000D8D180F3118886F311882068E368904942
:101B3000C01AB0FA80F04009FEF78AFD0028DBD118
:101B400080F311880323DFF830923B60064604F1EE
:101B500010084225202383F31188636A002B03F1C8
:101B6000FF31404640F3D180A268D4F804E06162BE
:101B7000131D7345A360156024BF2368A360FFF79E
:101B8000FFFA012086F311884946FEF761FD013511
:101B9000002884D1452DDDD1202383F31188626A8A
:101BA000002A10DDE3682168043B013A8B4262623F
:101BB000E36002D26368043BE36041226D481A602F
:101BC000FFF7DEFA0120002383F311886A49FEF74C
:101BD0003FFD054600287FF462AF04263E604FF0CB
:101BE000200888F31188606A6449B0FA80F04009DF
:101BF000FEF72EFD814600287FF46CAF80F311883C
:101C000088F31188A0695E49A0F10400B0FA80F061
:101C10004009FEF71DFD054610B189F311883EE726
:101C200080F3118888F31188E068A3685549A0EB18
:101C3000030EDEF1000040EB0E00FEF709FD002868
:101C40007FF448AF80F311880523DFF84491DFF873
:101C500028813B600546202383F31188A369002B6C
:101C600003F1FF32484652DDE368A26162681968F9
:101C7000019104339342E36024BF2368E360FFF7DC
:101C80007FFA012085F311884146FEF7E1FC002828
:101C90007FF405AF9DF80400FEF732FC013EDAD177
:101CA00039493A48FEF7ACFC00287FF4F8AE062329
:101CB0004FF0FF3146203B6004F0FAF8B0FA80F0B4
:101CC00040092D49FEF7C4FC00287FF4E8AE4FF030
:101CD000FF3101A804F044F9B0FA80F04009264928
:101CE000FEF7B6FC00287FF4DAAE07233B60202520
:101CF00085F31188606A1B49071F78427841FEF717
:101D0000A7FC30B186F31188C9E600203AE700202D
:101D1000B8E786F3118885F31188A0691249B0FAF3
:101D200080F04009FEF794FC0028EBD186F311887F
:101D30002068A3680D49C21A50425041FEF788FC42
:101D400000287FF4ACAE2068E3680949C31A584202
:101D50005841FEF77DFCA2E66C10002054080020DC
:101D6000B8610008C4610008D0610008DC610008A7
:101D70000062000864080020706200082462000805
:101D8000306200083C620008546200086862000883
:101D900070080020000000000000000000000000AB
:101DA0002DE9F043954F012383B03B60202686F355
:101DB0001188934C9349606AA0F10400B0FA80F056
:101DC0004009FEF745FC28B1002383F3118803B0D6
:101DD000BDE8F083054680F3118802233B6004F0E0
:101DE00057F886F31188606A8749A0F10400B0FAB9
:101DF00080F04009FEF72CFC804620B185F3118865
:101E000003B0BDE8F08380F3118886F31188A069E0
:101E10007E49B0FA80F04009FEF71AFC054620B171
:101E200088F3118803B0BDE8F08380F3118886F34E
:101E300011882068A3687649C01AB0FA80F040097A
:101E4000FEF706FC80460028D8D180F3118886F37F
:101E500011882068E3686F49C01AB0FA80F0400921
:101E6000FEF7F6FB0028DBD180F3118803236A4ECE
:101E70003B6042254FF0FF31284604F019F8B0FAD4
:101E800080F031464009FEF7E3FB013500289ED182
:101E9000452DEFD14FF0FF31412004F031F8B0FA79
:101EA00080F040095C49FEF7D3FB054600288ED13F
:101EB00004263E604FF0200888F31188606A574975
:101EC000B0FA80F04009FEF7C3FB8146002895D1A7
:101ED00080F3118888F31188A0695149A0F10400AA
:101EE000B0FA80F04009FEF7B3FB054610B189F364
:101EF00011886CE780F3118888F31188E068A36883
:101F00004849A0EB030EDEF1000040EB0E00FEF7A7
:101F10009FFB00287FF472AF80F3118805233E4DAC
:101F20003B604FF0FF3101A804F01AF8B0FA80F0DE
:101F300029464009FEF78CFB00287FF448AF9DF846
:101F40000400FEF7DDFA013EEBD137493748FEF7D2
:101F500057FB00287FF43BAF06234FF0FF314620AC
:101F60003B6003F0A5FFB0FA80F040092A49FEF774
:101F70006FFB00287FF42BAF4FF0FF3101A803F077
:101F8000EFFFB0FA80F040092349FEF761FB00281B
:101F90007FF41DAF07233B60202585F31188606A1D
:101FA0001949071F78427841FEF752FB10B186F3BA
:101FB00011880CE786F3118885F31188A06913490D
:101FC000B0FA80F04009FEF743FB0028EFD186F31A
:101FD00011882068A3680E49C21A50425041FEF78A
:101FE00037FB00287FF4F3AE2068E3680949C31A81
:101FF00058425841FEF72CFBE9E600BF6C10002068
:1020000054080020B8610008C4610008D0610008CD
:10201000DC610008006200087062000824620008A9
:10202000306200083C6200085462000868620008E0
:1020300008B503F0D5FD024A024B12601B6008BDD3
:10204000000800200408002000000000000000003C
:1020500003F0C6BD0000000000000000000000000A
:10206000FFF7F6BF000000000000000000000000C5
:102070002DE9F04F3C4D01238BB02B60202282F3E1
:102080001188DFF80481394FD8F80000B969079347
:102090000AAE002346F8140D4FF0FF300691C8F841
:1020A00000600893099083F3118882F31188DFF8A8
:1020B000DC90BA69D9F8001003930AAC4FF0040A17
:1020C00044F8281D04900192C9F80040CDF808A0FA
:1020D00083F3118802232B6001F072FEBA69244B4E
:1020E0009168244A83460139234803F079FC234A46
:1020F000032310602B6003F0BBFD0BF502710BF5A1
:10210000FA7003F0C5FF10B10BB0BDE8F08F03F01B
:1021100067FDB0FA80F040091949FEF799FA0028E6
:10212000F2D1FFF71DF831464046C5F800A0FEF792
:102130005FFB21464846FEF75BFBD8F800001149DB
:10214000A0EB0800B0FA80F04009FEF781FA002801
:10215000DAD1D9F800000B49A0EB0900B0FA80F001
:102160004009FEF775FACFE76C1000203812002006
:1021700098610008F1270008000A00208410002060
:102180009C610008A86100080008002004080020E5
:1021900070B5574D574C01202860A269202383F366
:1021A0001188536B33B983F311885349FEF750FA02
:1021B00080B170BD5842184023EA000353630023E6
:1021C00083F31188B0FA80F040094B49FEF740FADA
:1021D0000028EED1A369202282F311885A6B002ACD
:1021E00072D0586380F311884349FEF731FA002812
:1021F000DFD1A369202282F311885A6B013267D0A4
:1022000080F3118801203C49FEF722FA0028D0D142
:1022100002232B60A669202383F31188756B55B9BF
:102220004FF0FF3373624FF4FA710A20FFF780F822
:10223000002851DB756B6842284025EA000575636C
:10224000002383F31188B0FA80F040092A49FEF791
:10225000FFF90028ADD1A669202383F31188756B9F
:1022600055B94FF0FF3373624FF4FA710A20FFF74C
:102270005FF8002834DB756B0023736383F31188E8
:10228000B5FA85F040091C49FEF7E2F90546002839
:102290008FD1A469202383F31188636B013309D0A4
:1022A0004FF0FF3363624FF4FA710B20FFF740F8F1
:1022B000002819DB0023636383F3118828460E4945
:1022C000BDE87040FEF7C4B982F3118801208BE7A6
:1022D000586380F3118896E785F311880120B5E7EC
:1022E00085F311880120CEE785F311880125E5E704
:1022F0006C100020381200208861000800000000E7
:1023000038B52B4C012305202360FEF761FA022328
:10231000236003F0ADFCA0F10500B0FA80F0254980
:102320004009FEF795F900B138BD03F059FCB0FA49
:1023300080F040092049FEF78BF90028F4D10323EF
:1023400004202360FEF744FA0423236001F038FDE3
:102350001A4B1B4A9B69996805460139194803F0D5
:102360003FFB194A05232360106003F081FC05F54B
:102370000271044605F5FA7003F08AFE0028D3D1F5
:10238000A4F10500B0FA80F040091049FEF760F9A9
:102390000028C9D103F024FCB0FA80F040090649B6
:1023A000FEF756F90028BFD1BDE83840FEF7D8BE89
:1023B0006C1000205C6100089C610008381200204D
:1023C00031280008000A00208410002074610008F1
:1023D00038B5294C012305202360FEF7F9F90223C3
:1023E000236003F02DFCA0F10500B0FA80F0234932
:1023F0004009FEF72DF900B138BD03F0F1FBB0FA4A
:1024000080F040091E49FEF723F90028F4D1032388
:10241000236001F0D5FC1B4B1B4A9B69996805465C
:1024200001391A4803F0DCFA194A042323601060CA
:1024300003F006FC05F50271044605F5FA7003F099
:1024400027FE0028D8D1A4F10100B0FA80F040099D
:102450001049FEF7FDF80028CED103F0C1FBB0FA19
:1024600080F040090649FEF7F3F80028C4D1BDE822
:102470003840FEF775BE00BF6C1000205C6100089C
:102480009C6100083812002031280008000A002052
:1024900084100020486100080000000000000000D7
:1024A000064A074B074912600020096049605260E4
:1024B000906098601B605B60704700BF440800201C
:1024C0000808002024080020000000000000000090
:1024D000044B054A1B600021126052605B609960EA
:1024E000704700BF440800202408002000000000BE
:1024F000FFF7EEBF00000000000000000000000039
:10250000024B00221B605B609A6070474408002009
:10251000044A054B126000215260916099601B6073
:102520005B6070474408002008080020000000009D
:10253000FFF7E6BF00000000000000000000000000
:10254000FFF786BD00000000000000000000000052
:10255000FFF77EBD0000000000000000000000004A
:10256000FFF776BD00000000000000000000000042
:1025700038B5354C012307202360FEF729F90223E3
:10258000236003F03DFBA0F10100B0FA80F02F4979
:102590004009FEF75DF800B138BD03F031FBA0F152
:1025A0000200B0FA80F029494009FEF751F80028EE
:1025B000F2D103F025FBA0F10400B0FA80F023492A
:1025C0004009FEF745F80028E6D103F009FBB0FA10
:1025D00080F040091E49FEF73BF80028DCD10323B8
:1025E000236001F0EDFB1B4B1B4A9B699968054674
:1025F00001391A4803F0F4F9194A042323601060E2
:1026000003F0FEFA05F50271044605F5FA7003F0D1
:102610003FFD0028C0D1A4F10100B0FA80F04009CC
:102620001049FEF715F80028B6D103F0D9FAB0FA30
:1026300080F040090649FEF70BF80028ACD1BDE850
:102640003840FEF78DBD00BF6C1000205C630008B1
:102650009C6100083812002031280008000A002080
:102660008410002048610008000000000000000005
:10267000FEF776BD00000000000000000000000032
:10268000FEF76EBD0000000000000000000000002A
:10269000F8B5104B104F01261E600725002425FABF
:1026A00004F3DB0704D4013425FA04F3DB07FAD57D
:1026B00006FA04F3204625EA030557F82430984724
:1026C0000134002DEBD105490548BDE8F840FDF780
:1026D00097BF00BF6C1000208862000844630008A8
:1026E0005863000800000000000000000000000027
:1026F0002DE9F047364CDFF8E890246002218AB0DB
:10270000C9F80010202686F31188324823680AAFE2
:10271000012247F8143D8369069300254FF0FF33EB
:10272000079227600895099385F3118886F311882D
:102730000DF12808226848F8282D8269019202913B
:1027400003950493C4F8008085F3118886F31188FB
:1027500020682149001B18BF0120FDF779FF20B137
:1027600085F311880AB0BDE8F087824680F31188AE
:10277000032339462046C9F80030FEF739F886F3BE
:10278000118820681449001B18BF0120FDF760FF65
:10279000054620B18AF311880AB0BDE8F08780F3BE
:1027A0001188042341462046C9F80030FEF720F87E
:1027B00086F3118820680949001BB0FA80F04009AF
:1027C000FDF746FF0028CBD180F31188CAE700BF90
:1027D000000800203812002038630008A8610008B3
:1027E0006C1000200000000000000000000000004D
:1027F00038B5202585F3118800210B48FEF7F8F93C
:102800000024FEF7CDF884F311884FF4FA70FEF738
:102810003FFF85F3118805482146FEF7E9F9FEF7E9
:10282000BFF884F3118838BD000800200408002098
:1028300010B504464FF4FA70FEF72AFF202383F305
:10284000118801212046FEF7BBF9FEF7A9F8002305
:1028500083F3118810BD00BF0000000000000000DD
:102860004320FDF74DBE00BF000000000000000047
:102870004220FDF745BE00BF000000000000000040
:102880004120FDF73DBE00BF000000000000000039
:1028900010B541210446FEF773F920464221FEF7A8
:1028A0006FF920464321FEF76BF920464421BDE82D
:1028B0001040FEF765B900BF0000000000000000F6
:1028C000F8B5144B144C9B69144A996814480131AB
:1028D0000125256003F084F8124A0223236010606A
:1028E000042420270026FEF7EBF8456A87F31188B9
:1028F0002946FEF77DF886F31188E8B2FDF700FE61
:10290000013CF0D1FEF72CFC07490848BDE8F8402F
:10291000FDF776BE381200206C10002091280008C8
:10292000000A002084100020446300086862000848
:10293000F8B51C4B1C4E9B691C4C9F681C4A1D4BD8
:102940001D4D791C4FF0020E3046C4F800E003F034
:1029500047F84FF0030E2860B91C06F5A470174B1A
:10296000174AC4F800E003F03BF8F91C154A686008
:10297000042706F52470144B276003F031F8052373
:10298000A860236003F0FCF80623236003F0F8F846
:1029900007232360FEF7E4FB0C490D48BDE8F8402F
:1029A000FDF72EBE38120020000A00206C10002017
:1029B000B12F0008986100088410002030630008DF
:1029C00041300008E129000834630008446300082E
:1029D0005863000800000000000000000000000034
:1029E00038B5064C05462046FEF7CAFA2878FDF7AA
:1029F00087FD2046BDE83840FEF722BA08080020CF
:102A00002DE9F843404D414EAA69414B9468414835
:102A1000414A424F04F101084FF0020E4146C6F808
:102A200000E002F0DDFF04F10209494638603C4B4A
:102A30003C4A3D4802F0D4FF032378603B483360B2
:102A4000FEF79EFAAB693A499868001BB0FA80F02D
:102A50004009FDF7FDFD08B1BDE8F88304234FF4FC
:102A60007A703360FEF714FEAB6931499868A0EBC9
:102A70000800B0FA80F04009FDF7EAFD0028EBD12C
:102A800005232C483360FEF77BFAAB692849986828
:102A9000A0EB0800B0FA80F04009FDF7D9FD00284E
:102AA000DAD106234FF47A703360FEF7F1FDAB699B
:102AB0001F499868A0EB0900B0FA80F04009FDF7C3
:102AC000C7FD0028C8D107231A483360FEF7B8F9BC
:102AD000AB6917499868A0EB0800B0FA80F040098C
:102AE000FDF7B6FD0028B7D1082310483360FEF784
:102AF000A7F9AB690E499868001BB0FA80F040094D
:102B0000BDE8F843FDF7A4BD381200206C1000208A
:102B100098610008000A0020412B00088410002062
:102B200034630008812F0008480B0020440800206F
:102B3000E06200080808002000000000000000001B
:102B400010B5064C4FF4FA70FEF7A2FD2046FEF7D2
:102B500017FA2046BDE81040FEF772B9440800207D
:102B6000F8B5244F244EBB6924489C68244D0223A9
:102B70003360FEF705FA4FF0030E611C214B224A29
:102B80002248C6F800E002F02BFFA11C2860204B71
:102B90001D4A204802F024FFE11C68601E4B1A4ABF
:102BA0001E4802F01DFF211DA8601D4B164A1D483E
:102BB00002F016FF611D144AE8601B4B1B4802F02F
:102BC0000FFF042328610D483360FEF739F9FEF743
:102BD000C7FABB6916499868001BB0FA80F0400933
:102BE000FDF736FD00B1F8BD12491348BDE8F840C5
:102BF000FDF706BD381200206C10002044080020AC
:102C000084100020DC620008412C0008000A00202B
:102C1000D4620008480B002030630008900C0020AC
:102C200034630008D80D002098610008200F0020B0
:102C3000E062000844630008D86200080000000059
:102C400038B5064C05462046FEF79AF92878FDF778
:102C500057FC2046BDE83840FEF7F2B84408002093
:102C6000F8B5264B264E9A6926489568264B274A82
:102C7000274C691C0127376002F0B2FEA91C2060B6
:102C8000244B224A244802F0ABFEE91C6060234B2F
:102C90001E4A234802F0A4FE291DA060214B1B4AB6
:102CA000214802F09DFE691DE060204B174A204834
:102CB00002F096FE022333602061202383F3118803
:102CC0001C4C2368A34218BF6FF0010509D01A6895
:102CD000226018465460FDF73BFF23684562A3421B
:102CE000F5D1FDF75DFE002383F31188FEF738FA76
:102CF00011491248BDE8F840FDF782BC38120020A7
:102D00006C100020000A0020DC620008413000083E
:102D100084100020D4620008480B002030630008B3
:102D2000900C002034630008D80D00209861000842
:102D3000200F00202408002044630008D862000807
:102D4000284B9B692DE9F0419F68274E274DDFF8FE
:102D5000C080274B274C4FF0010E791C3246284685
:102D6000C8F800E002F03CFEB91C2060324605F5D0
:102D7000A470214B02F034FEF91C6060324605F568
:102D800024701E4B02F02CFE391DA060324605F562
:102D900076701B4B02F024FE791DE060324605F58B
:102DA000A460184B02F01CFE0223C8F8003020611A
:102DB000202383F3118802F0FBFE02F0F9FE02F0FB
:102DC000F7FE02F0F5FE02F0F3FEFDF7E9FD002349
:102DD00083F31188FEF7C4F90B490C48BDE8F041B4
:102DE000FDF70EBC3812002041300008000A002018
:102DF000DC62000884100020D46200083063000800
:102E0000346300089861000844630008D862000831
:102E10006C10002000000000000000000000000016
:102E20002DE9F8434E4D4F4CAA6902239668236062
:102E300002F086FE4C49FDF70BFC08B1BDE8F883B3
:102E40000323236002F07CFE80F00100C0B24749FA
:102E5000FDF7FEFB0028F1D1454F042338462360DF
:102E6000FDF7EEFFB8684349B0FA80F04009FDF77E
:102E7000EFFB0028E2D138683F49C01BB0FA80F070
:102E80004009FDF7E5FB0028D8D1AB693B499868BC
:102E9000801BB0FA80F0052340092360FDF7D8FBC2
:102EA0000028CBD10623236002F04AFE2E49FDF70D
:102EB000CFFB0028C2D102F043FE80F00100C0B277
:102EC0002A49FDF7C5FB0028B8D1D5F81890202372
:102ED00083F31188D9F83830E3B180461A68D9688D
:102EE000C9F838109342104636D01168D2F838E04D
:102EF00019604B609A60C3F80CE09363FDF728FEFD
:102F0000D9F83830002BE9D1D9F83C30C9F808306D
:102F1000FDF746FD002383F31188B8681549B0FA20
:102F200080F04009FDF794FB002887D138681249EA
:102F3000C71B78427841FDF78BFB00287FF47EAFFA
:102F4000AB690E499868821B0723504223605041A9
:102F5000BDE8F843FDF77CBBC3F808800B46D1E71A
:102F6000381200206C100020F86200080863000886
:102F7000440800201463000820630008E062000891
:102F800010B540F2DC50FEF783FB202383F3118859
:102F9000064C2046FDF78CFF2046FDF729FFFDF784
:102FA000FFFC002383F3118810BD00BF0808002038
:102FB000F8B507461B48FDF7E3FF1B48FDF7E0FFA8
:102FC000202383F31188194DAB699E6B3046FDF7C2
:102FD0000FFF174BAC691846636203E09968A2685B
:102FE000914202D31B688342F8D15A686260236021
:102FF000072014605C60FDF74BFDAB695B6A013331
:1030000002D03046FDF754FF002383F3118838784F
:10301000FDF776FA0448FDF713FF0248BDE8F840D3
:10302000FDF70EBF080800204408002038120020D9
:103030002408002000000000000000000000000044
:1030400070B506461648FDF79BFF202383F31188D1
:10305000144B9C69A56B2846FDF7CAFE12486062B6
:10306000034603E09968A268914202D31B68834239
:10307000F8D15A6862602360072014605C60FDF735
:1030800007FD2846FDF714FF002383F311883078ED
:10309000FDF736FA0248BDE87040FDF7D1BE00BF2B
:1030A00044080020381200202408002000000000FE
:1030B0002DE9F041604F84B001AC012300263B6054
:1030C0000194029403964FF0200888F31188039826
:1030D0005A49B042CCBF00200120FDF7B9FA20B117
:1030E00086F3118804B0BDE8F081054680F31188AD
:1030F0000223014620463B60FEF76AF888F31188F8
:1031000003984E490028CCBF00200120FDF7A0FA0B
:10311000064620B185F3118804B0BDE8F08180F344
:103120001188474B474A9B694748996803250139ED
:1031300023463D6002F054FC444A042310602046BC
:103140003B60FDF7DDFC054688F3118803983B4999
:103150000028CCBF00200120FDF77AFA0028BFD15B
:1031600080F31188B5FA85F040093949FDF770FA06
:103170000028B7D105233B6088F31188039B002BFF
:1031800023DDFDF70DFC002585F31188202686F34D
:10319000118803982F49A842D4BF00200120FDF7D1
:1031A00057FA80460028B5D180F3118886F311883C
:1031B00003982949A0F10100B0FA80F04009FDF719
:1031C00047FA30B188F311888CE72046FDF7D8FF25
:1031D000D7E780F3118806233B6086F31188039BB1
:1031E000002B22DDFDF7DCFB002686F3118820256D
:1031F00085F3118803981949B042D4BF00200120FB
:10320000FDF726FA044600287FF46AAF80F31188A0
:1032100085F3118803981049431E58425841FDF721
:1032200017FA30B184F311885CE72046FDF7A8FF58
:10323000D8E780F3118855E76C10002094620008ED
:1032400038120020A1370008000A00208410002056
:10325000A0620008B4620008C0620008986200081A
:10326000024B00221B605B609A6070470C130020C9
:10327000FFF7F6BF000000000000000000000000A3
:10328000FFF7EEBF0000000000000000000000009B
:10329000FFF7E6BF00000000000000000000000093
:1032A000024B01221B605B609A6070470C13002088
:1032B000014B00221A6070478008002000000000C7
:1032C000044B01214FF080421960516A536A9942C0
:1032D000FCD070476C1000200000000000000000CF
:1032E000074B01221A60202383F3118862B672B65D
:1032F00083F3118862B6002383F3118862B67047A6
:103300006C10002000000000000000000000000021
:103310001E4B1F4A9B691F48996870B51E4D1F4C74
:103320000131002301262E6002F05AFB1C4A0223C1
:1033300010602B6002F0CCFB20681A49001BB0FA29
:1033400080F04009FDF784F900B170BDA06816490E
:10335000B0FA80F04009FDF77BF90028F5D103238E
:103360002B6002F0B5FB20680E49001BB0FA80F01C
:103370004009FDF76DF90028E7D1A0680A49B0FAC5
:1033800080F04009BDE87040FDF762B938120020B6
:10339000B1330008000A00206C1000200C1300203C
:1033A0008410002020630008C464000800000000AE
:1033B00010B5044C2046FDF7A3FB2046BDE81040A5
:1033C000FDF746BB0C1300200000000000000000C9
:1033D000FDF7C6BE00000000000000000000000075
:1033E00010B504460348FDF78BFB2078BDE810407C
:1033F000FDF786B80C13002000000000000000005C
:103400000078FDF77DB800BF00000000000000005C
:103410002DE9F843DFF8E0802C4FD8F818302C4E17
:103420009968DFF8D8902B4B2B4D3A460531304642
:103430000124C9F8004002F0D3FAD8F81830286007
:103440009968264B264C3A46013106F5A47002F0E5
:10345000C7FAD8F8183068609968224B3A460331A9
:1034600006F5247002F0BCFAD8F81830A860996804
:103470001D4B3A46043106F5767002F0B1FAD8F8E1
:103480001830E8609968194B02313A4606F5A46095
:1034900002F0A6FA022328612046C9F80030FDF7A1
:1034A000D7FA2046FDF7D4FA2046FDF7D1FA204698
:1034B000FDF7CEFA2046FDF7CBFAFDF751FE0C4999
:1034C0000C48BDE8F843FDF79BB800BFE1330008A6
:1034D000000A00209861000884100020346300086E
:1034E0000C13002030630008D4620008DC6200087E
:1034F00044630008D8620008381200206C100020D5
:10350000F8B5544D544EAA69544B91685448554AE5
:10351000554C05390127376002F062FAAB6920602B
:103520009968504A514B5248043902F059FAAB6934
:10353000606099684B4A4F4B4F48033902F050FA8C
:10354000AB69A0609968474A4C4B4D48023902F07C
:1035500047FAAB69E0609968424A4A4B4A480139E8
:1035600002F03EFA2061FDF7FBFD48494848FDF7AF
:1035700047F800B1F8BDAA69424B91684248394A00
:1035800001390227376002F02BFAAB692061996894
:10359000344A3A4B3A48023902F022FAAB69E06009
:1035A0009968304A334B3448033902F019FAAB6951
:1035B000A06099682B4A2D4B2D48043902F010FA6F
:1035C000AB6960609968274A244B2548053902F0A9
:1035D00007FA2060FDF7C4FD2C492D48FDF710F8CF
:1035E0000028C7D1AA69214B916821481D4A043996
:1035F0000327376002F0F4F9AB6960609968194AF3
:10360000164B1748053902F0EBF9AB692060996851
:10361000144A1C4B1C48013902F0E2F9AB692061E5
:103620009968104A154B1648023902F0D9F9AB696E
:10363000E06099680B4A0F4B0F48033902F0D0F94C
:10364000A060FDF78DFD11491148BDE8F840FCF779
:10365000D7BF00BF381200206C100020DC620008C9
:10366000000A00200134000884100020D462000801
:10367000480B002030630008900C002034630008E1
:10368000D80D002098610008200F00204463000836
:10369000D8620008000000000000000000000000E8
:1036A000234B24489A69244B9168244A70B5244CD2
:1036B00001310125256002F093F9224B02251860A3
:1036C0002560202383F311881F4C002602E0012D82
:1036D0000ED00125A3680133002BA360F7DC20681E
:1036E000036823605C60FDF733FA012D4662F0D178
:1036F000FDF756F9002585F31188FDF731FD2023EC
:1037000083F31188A0681149A0F10100B0FA80F09C
:103710004009FCF79DFF10B185F3118870BD80F35F
:1037200011880B490448BDE87040FCF769BF00BF31
:1037300038120020000A002098610008E1330008D8
:103740006C100020841000200C130020B4640008CA
:1037500044630008000000000000000000000000BA
:1037600010B52023044683F31188094B186820B153
:10377000002242621A60FDF7EBF9FDF711F9002310
:1037800083F311882078BDE81040FCF7B9BE00BF74
:103790008008002000000000000000000000000081
:1037A00008B5202282F311888368002B05DDFDF720
:1037B000F7F8002383F3118808BDFDF7E1FCFDF75E
:1037C000EFF8002383F3118808BD00BF000000005C
:1037D00008B54FF4FA70FDF75BFF202383F31188DF
:1037E0000448FDF7CDFCFDF7DBF8002383F31188D7
:1037F00008BD00BF0C130020000000000000000006
:1038000070B52B4E01234FF0804533606C6A642005
:10381000FDF73EFF04F1670104F1640002F038FC9B
:1038200000B170BD022333606C6A4FF47A70FDF70B
:103830002FFF04F2EB3104F57A7002F029FC002826
:10384000EFD1032333606C6A4FF47A70FDF720FFE9
:1038500004F2EB3104F57A7002F01AFC0028E0D192
:10386000042333606C6A42F21070FDF711FF04F517
:103870001C5108461030133102F00AFC0028D0D148
:10388000052333606E6A202306F1640483F31188F4
:10389000696A611A02D00820FDF74AFD002383F30C
:1038A000118806F167012046BDE8704002F0F0BBC8
:1038B0006C1000200000000000000000000000006C
:1038C0002DE9F8432B4C2C4E012320463360FDF7A5
:1038D00017F92025074685F31188A0682749B0FA13
:1038E00080F04009FCF7B4FE20B1002383F3118877
:1038F000BDE8F88380F31188B7FA87F040092049C2
:10390000FCF7A6FE074608B1BDE8F8834FF00209B0
:103910002046C6F80090FDF79BF885F31188A06853
:103920001649A0F10100B0FA80F04009FCF790FEC2
:10393000804618B187F31188BDE8F88380F31188B9
:103940000323494620463360FDF742FC85F3118886
:10395000A0680A49A0F10200B0FA80F04009FCF723
:1039600077FE10B980F31188CEE788F31188BDE89F
:10397000F88300BF0C1300206C100020886400083E
:103980009C6400080000000000000000000000002F
:1039900000210148FDF71CBC0C13002000000000B2
:1039A0002DE9F041304D314FAA69314B91683148D2
:1039B000314A013901243C6002F012F82F4B2026D5
:1039C000186086F31188AB692D4C5C62032023607C
:1039D000FDF75EF8AA690023D2F8248083F31188EA
:1039E00020682849B0FA80F04009FCF731FE08B1A0
:1039F000BDE8F081B8FA88F040092349FCF728FEB9
:103A000080460028F4D1FDF7ABFB02233B6086F330
:103A100011884FF08042AB69556A5C6242F21071C6
:103A200003202360FDF784FC064688F3118805F522
:103A30001C5108461030133102F02AFB0028D7D160
:103A400020681049B0FA80F04009FCF701FE002818
:103A5000CED1A6F1FF30B0FA80F040090A49BDE8A6
:103A6000F041FCF7F5BD00BF381200206C100020BB
:103A700098610008000A00206137000884100020C7
:103A8000800800207C6400089C640008000000009E
:103A90002DE9F0412F4DDFF8D080AB699C68A61C62
:103AA000671C9E6038460223C8F80030FCF788FF88
:103AB000001BB0FA80F028494009FCF7C9FD08B1A5
:103AC000BDE8F081AB6925499868801BB0FA80F0A9
:103AD0004009FCF7BDFD0028F2D1AB692049D86B45
:103AE000C01BB0FA80F04009FCF7B2FD0028E7D116
:103AF000E61C03233046C8F80030FCF761FF381A93
:103B0000B0FA80F014494009FCF7A2FD0028D7D193
:103B1000AB6912499868801BB0FA80F04009FCF745
:103B200097FD0028CCD1AB690E49D86B801BB0FA49
:103B300080F04009FCF78CFD0028C1D10423C8F8AF
:103B40000030202383F31188AB699C60DC6380F331
:103B50001188B5E738120020F463000818640008E3
:103B6000346400085C6400086C1000200000000051
:103B70002DE9F0411C4E1D4FB3699C68651C012363
:103B800028463B60FCF71CFF8046001BB0FA80F023
:103B900040091749FCF75CFD08B1BDE8F081B36945
:103BA00014499868401BB0FA80F04009FCF750FDBA
:103BB0000028F2D1022340463B60FCF701FF281A9F
:103BC000B0FA80F00A494009FCF742FD0028E4D130
:103BD000B36908499868001BB0FA80F04009BDE855
:103BE000F041FCF735BD00BF381200206C100020FA
:103BF000F4630008186400080000000000000000E2
:103C000010B5314C012386B02360EFF311831BB94B
:103C1000FDF75EFDFDF74CFD02232360202383F3B7
:103C20001188EFF311831BB9FDF752FDFDF740FD3D
:103C3000002383F3118803232360EFF3118313B967
:103C4000202383F31188EFF3118313B9202383F327
:103C50001188002383F3118804222260202282F33A
:103C60001188EFF311820AB183F31188EFF3118306
:103C700013B1002383F311880522002304932260EB
:103C8000202383F31188049B01AC13B12046FDF778
:103C9000D7FA204600230D4A0121FDF709FB002435
:103CA00084F311880A20FDF7F3FC202383F31188A5
:103CB000049884F31188B0FA80F005494009FCF7B4
:103CC000C7FC06B010BD00BF6C100020E13C00082E
:103CD000E063000800000000000000000000000099
:103CE00008B5202383F31188002282F3118883F31F
:103CF0001188EFF311831BB9FDF7EAFCFDF7D8FC3F
:103D0000002383F3118808BD0000000000000000BC
:103D100070B5244D01202860202484F31188FDF71C
:103D2000DFFC002383F3118880F00100C0B21E493C
:103D3000FCF78EFC00B170BD06460220286084F3BB
:103D40001188FDF7CDFC86F3118880F00100C0B228
:103D50001649FCF77DFC06460028ECD103232B60B6
:103D600084F311880420FDF7BBFC86F3118880F0F2
:103D70000100C0B20E49FCF76BFC06460028DAD100
:103D800004232B6084F311880820FDF7A9FC86F337
:103D9000118880F00100C0B20649BDE87040FCF710
:103DA00057BC00BF6C1000207063000888630008D7
:103DB000AC630008C86300080000000000000000B9
:103DC00008B50120FDF764FC202383F311884FF030
:103DD00080420023506A83F3118808BD0000000070
:103DE0002DE9F8434B4D01202860202383F31188EF
:103DF000494CA368013B5CBFA3600020002383F310
:103E000011884649FCF724FC08B1BDE8F883206816
:103E10004349001BB0FA80F04009FCF719FC002868
:103E2000F3D1A0683F49B0FA80F04009FCF710FCDC
:103E300003460028E9D13C493C4A89693C488968E5
:103E4000022601392E6001F0CBFD3A4B186041F299
:103E5000883001F015FE0646FDF782F9B6FA86F0C5
:103E600040092E49FCF7F4FB0028CED120682C49EC
:103E7000001BB0FA80F04009FCF7EAFB0028C4D12F
:103E8000A0682849B0FA80F04009FCF7E1FB00285F
:103E9000BBD103232B60FFF793FF204F204EDFF8A9
:103EA0008480412581462846FCF72AFB4FF4FA70AE
:103EB00001F0E6FDA0F1FF30B0FA80F0394640098C
:103EC000FCF7C6FB314600289FD12068001BB0FAE2
:103ED00080F04009FCF7BCFB4146002895D1A06862
:103EE000B0FA80F04009FCF7B3FB0135EDB20028D1
:103EF0008BD1462DD7D110491048FCF781FB002803
:103F000083D109F6D81109F6C410BDE8F84302F0D0
:103F1000BFB800BF6C1000200C13002070620008B6
:103F200020630008C464000838120020D13700085C
:103F3000000A00208410002044630008D8620008B2
:103F4000024B00221B605B609A607047DC09002016
:103F5000024B01221B605B609A607047F0090020F1
:103F6000024B00221B605B609A607047F0090020E2
:103F700008B5094B094A9B69094C9A614FF40055F1
:103F80002E46268340F6C410FDF782FB658341F27E
:103F90008830FDF77DFBF4E738120020D864000874
:103FA000000C0240000000000000000000000000C3
:103FB00070B5334D334C344801232B60FCF7D8FAED
:103FC0007820FCF7EDFA2046FCF7B2FA02232F48DE
:103FD0002B60FCF7CDFA4420FCF7E2FA2046FCF710
:103FE000A7FA03232A482B60FCF7C2FA1420FCF737
:103FF000D7FA2046FCF79CFA042626482E60FCF7E8
:10400000B7FA0C20FCF7CCFA2046FCF791FA05230E
:1040100021482B60FCF7ACFA1020FCF7C1FA2046CF
:10402000FCF786FA06231D482B60FCF7A1FA08204E
:10403000FCF7B6FA2046FCF77BFA072318482B60FA
:10404000FCF796FA3046FCF7ABFA2046FCF770FA1C
:10405000082314482B60FCF78BFA1420FCF7A0FA15
:104060002046FCF765FA09230F482B60FCF780FA1D
:104070002820FCF795FA2046BDE87040FCF758BAB6
:104080006C1000209870000888700008A07000086C
:10409000B0700008C0700008D0700008E070000820
:1040A000F0700008007100081071000800000000A6
:1040B0002DE9F843DFF880901C4C0123C9F800304B
:1040C000FFF77EFE002580464FF0804742F20F76D4
:1040D0002046FCF755FF2046FCF7B2FE2046FCF7D1
:1040E0004FFF2046FCF7ACFE2046FCF749FF204678
:1040F000FCF7A6FE2046FCF743FF2046FCF7A0FE97
:104100007B6AA3EB0803B34205F10105E0D9022362
:104110000748C9F80030FCF72BFAA800FCF740FA72
:104120000448BDE8F843FCF703BA00BFDC090020EF
:1041300058700008687000086C1000200000000033
:104140002DE9F843DFF880901C4C0123C9F80030BA
:10415000FFF736FE002580464FF0804742F20F768B
:104160002046FCF7CDFC2046FCF772FC2046FCF70D
:10417000C7FC2046FCF76CFC2046FCF7C1FC20463F
:10418000FCF766FC2046FCF7BBFC2046FCF760FC15
:104190007B6AA3EB0803B34205F10105E0D90223D2
:1041A0000748C9F80030FCF7E3F9A800FCF7F8F974
:1041B0000448BDE8F843FCF7BBB900BFF009002094
:1041C00058700008387000086C10002000000000D3
:1041D0002DE9F84FDFF890B01E4F1F4E1F4D012301
:1041E000CBF80030FFF7ECFD0024A24681464FF0EB
:1041F000200888F3118800233A4630460121FDF754
:1042000057F83A46002342F210712846FDF750F85D
:104210003046FDF715F82846FDF712F88AF31188A5
:104220004FF0804342F20F725B6AA3EB09039342A3
:1042300004F10104DDD902230948CBF80030FCF772
:1042400097F96000FCF7ACF90648BDE8F84FFCF7B9
:104250006FB900BF914D000898100020AC100020ED
:10426000587000081C7000086C100020000000004E
:104270002B4B2C4A9B692C4899682DE9F047DFF8B5
:10428000B8A0013101240023CAF8004001F0A8FBC6
:10429000264A022304461060CAF80030FFF790FD5A
:1042A00000252E46814620274FF0804887F311884D
:1042B00000212046FCF79CFB20460021FCF798FBE0
:1042C00020460021FCF794FB20460021FCF790FBE0
:1042D00086F31188D8F8243042F20F72A3EB090359
:1042E000934205F10405E1D90323CAF8003087F3AE
:1042F00011884FF0FF312046FCF77AFB86F31188D6
:10430000FCF72EFF04230A48CAF80030FCF730F906
:104310006800FCF745F90748BDE8F047FCF708B925
:1043200038120020B14E0008000A0020841000203E
:1043300058700008A06F00086C10002000000000FA
:104340002DE9F04383B002ACDFF8D080DFF8D090E5
:104350002D4F2E4E2E4D0122002344F8043DC9F866
:104360000020FFF72DFDD8F8183099683A4623460B
:104370000139304601F034FBD8F8183028609968CC
:104380003A462346013906F5A47001F029FBD8F816
:104390001830686099683A462346013906F524705A
:1043A00001F01EFBD8F81830A86099683A462346F9
:1043B000013906F5767001F013FBD8F81830E86083
:1043C00099683A460139234606F5A46001F008FBD6
:1043D0000223286142F21070C9F80030FDF758F945
:1043E000FCF76EF8FCF7BCFE03230A48C9F800305E
:1043F000FCF7BEF80198FCF7D3F80748FCF798F8EB
:1044000003B0BDE8F08300BF514E0008000A002051
:104410008410002058700008A06F00083812002097
:104420006C100020000000000000000000000000F0
:104430002DE9F041354DDFF80481AB69344A9968C4
:104440003448354C354F01230531C8F8003000237E
:1044500001F0C6FAAB69206099682D4A30480431F2
:10446000002301F0BDFAAB6960609968284A2D48C5
:104470000331002301F0B4FAAB69A0609968244AC3
:1044800029480231002301F0ABFAAB69E06099687A
:104490001F4A26480131002301F0A2FA02232061BD
:1044A000C8F80030FFF78CFC002406464FF080452A
:1044B00000213846FCF78CFE6B6A42F20F729B1BA0
:1044C000934204F10104F3D90323C8F80030FBF749
:1044D000F7FF00211148FCF77BFEFCF741FE0423A7
:1044E0001348C8F80030FCF743F82046FCF758F8AA
:1044F00004EB44040F48FCF73BF86000FCF750F86D
:104500000D48BDE8F041FCF713B800BF3812002099
:10451000814E0008000A002084100020F0090020CD
:10452000480B0020900C0020D80D0020200F002008
:1045300058700008E86F0008A06F00086C10002099
:104540002DE9F843174BDFF86C909B69DFF8688022
:104550009D68154F01231D44C9F80030FFF730FC5A
:1045600000240646002342462946384601F038FA20
:10457000FCF79EFD4FF0804342F20F725B6A9B1B7B
:10458000934204F10104EDD902230848C9F8003030
:10459000FBF7EEFF2046FCF703F80548BDE8F843BB
:1045A000FBF7C6BF38120020000A00205870000830
:1045B000CC6F00086C100020C159000800000000FA
:1045C0002DE9F843174BDFF86C909B69DFF86880A2
:1045D0009D68154F0123C9F80030FFF7F1FB013D3D
:1045E00000240646002342462946384601F0F8F9E1
:1045F000FCF796FD4FF0804342F20F725B6A9B1B03
:10460000934204F10104EDD902230848C9F80030AF
:10461000FBF7AEFF2046FBF7C3FF0548BDE8F843B4
:10462000FBF786BF38120020000A002058700008EF
:10463000CC6F00086C100020C15900080000000079
:10464000BD4BBE4C1A694FF0FF3100222DE9804866
:1046500019611A61586959615A61186A60F080508D
:1046600018621A62586A59625A62196C41F0805194
:104670001964216841F480712160196F01F440715F
:10468000B1F5007F8BB003D04FF4803119671A6702
:10469000AA4CA94E6268AA4BDFF8E8B2DFF8E8A29C
:1046A000DFF8E882DFF8E892DFF8E8C2DFF8E8E256
:1046B000A44FA54DA548A64922F400726260326B52
:1046C00040F2FF1422433263326D224332650024EC
:1046D0006FF4A8425C609A60C3F80CB04FF6FF72AA
:1046E000DFF8B8B25A61C3F82080C3F824B0DFF80D
:1046F000B082C3F800804FF4107BCAF804B04FF0CA
:10470000FF33DFF8A082CAF808304FF0806BCAF898
:104710000C80CAF814204FF04008CAF820B0DFF827
:1047200088B2CAF82480CAF800B00AF1A25A0AF581
:10473000443A0AF5AA7AC9F80440C9F80830C9F819
:104740000CA04FF0C04AC9F81420C9F820A0DFF827
:104750005CA2C9F824A0DFF858A2C9F800A0DFF8CD
:104760005492CCF80440DFF850A2CCF80830CCF8D2
:104770000C9040F6FF79CCF81490CCF82040CCF89F
:104780002440CCF800A0CEF80440CEF80830CEF893
:104790000C40CEF81420CEF82040CEF82440CEF8BD
:1047A00000807C60BB60FC607A613C627C623C6043
:1047B0006C60AB60EC606A612C626C622C6044607F
:1047C0008360C46042610462446204604C608B6038
:1047D000CC604A615F4A0C624FF010094C625D4840
:1047E0000C605461C2F83890326CDFF8D0E15A495D
:1047F0008462824642F001024AF8041B3264DEF809
:104800000810DFF8BCC1C0F804A002460746D06219
:1048100000F1740A4FF08042DFF8A8B1C0F840A060
:1048200041F00101C0F84CC0C0F874B0006542F21C
:10483000CF0ACEF808103946C2F828A000F10C0CB7
:104840004FF0010A07F1300E64315430434DD3620A
:10485000C7F80CC09461C7F810C0C7F830E0C7F8BB
:1048600034E0B86178623862F961F963B9647964F7
:1048700087F808A05463D4605460C2F814A0C2F84A
:1048800000A0374A4FF0800B4FF0805082F81CB3E5
:1048900005F11C01C2F88001106000220DEB090037
:1048A00004936B622D6000236D60CDE90823E961FC
:1048B0002962AC60AC626C670594069407942D6124
:1048C0006D6101F085F80DEB0900FBF7A9FF254BA1
:1048D000254926481860264A26480860264911605E
:1048E000264ADFF8E4E0D1682548C5F848E00F46DD
:1048F0004FF6FF0C0699696703EB090E07EA0C0CEB
:104900006F69C3F810E005F13001C3F814E04CEA18
:104910000000DFF8B8E0C5F838B085F85140C5F8B8
:104920006CB06C6685F852A0AC666F642D649C61B7
:104930003961D0604CE000BF003802400070004098
:10494000000002400014024000180240001C024017
:104950000020024084080020507200083812002015
:1049600000E100E0B0120020EC090020F103000893
:10497000D8090020201300200000022000ED00E0F4
:104980000003FA055400014000040240000056559F
:1049900000080240000C02400010024000AA0A0079
:1049A00000AAA02A154551558020080000060600DF
:1049B000018020025550550000010055002004E000
:1049C000C102000800440040E0640008F0ED00E08F
:1049D000DEF80CC039489C604CF0807CCEF80CC0EE
:1049E00005F15C0E05F1580C85F850A0DC6069619A
:1049F000A961EC64C5F858C0C5F85CE0C5F860E092
:104A00000368202543EA0A03036082F81F9082F8B6
:104A1000225084F3118862B685F311882848FBF789
:104A200057FF2146FBF7E4FF84F3118885F31188D3
:104A3000244B1B7A53450BD1336C43F4003333645E
:104A4000214BC02283F82623C3F88481C3F8048055
:104A50001C4B5A6F1D4B9A4200F05A8103F580633C
:104A60009A4200F0558140F2454393604021012372
:104A700042F22C10002411615361D0601460106860
:104A80005268104AFF21022382F87810137284F3CF
:104A90001188042001F0B4FA082001F0B1FA23468D
:104AA0000B4A0C48DFF83480DFF83490DFF828B088
:104AB000DFF830A0802100F093FF19E0001000E043
:104AC000F86400088408002000E100E000100140C4
:104AD000713F0008C01000207010002068100020F6
:104AE000801000201D13002041F28830FCF7D0FD1B
:104AF000894B1B69DB07F7D5884B8948C8F800301C
:104B0000FBF716FD8748884CFBF712FD8748FBF73B
:104B10000FFD2A21D8F8000003689B68984714F815
:104B2000011F0029F6D18248824CFBF701FD2A21A2
:104B3000D8F8000003689B68984714F8011F002903
:104B4000F6D17D487D4CFBF7F3FC2A21D8F8000014
:104B500003689B68984714F8011F0029F6D1784B29
:104B600078480393784B01910293FBF7E1FC6C4882
:104B7000764EFBF7DDFC764B01991970754B019A67
:104B8000013201920025002B00F09980724CFBF756
:104B900077FD2D21D8F8000003689B68984714F82A
:104BA000011F0029F6D101986C4CFBF7F9FCD8F8ED
:104BB000000003682E219B686F1C98473846FBF75E
:104BC000EFFC2021D8F8000003689B68984714F890
:104BD000011F0029F6D156F825301C68217841B113
:104BE000D8F8000003689B68984714F8011F002953
:104BF000F6D15B48FBF79CFC4FF4FA60FCF748FDEC
:104C000056F82540C9F800B0636800228AF80020F1
:104C100003B19847E3689847A36803B198479AF8A7
:104C20000030002B55D04F4C2D21D8F800000368E0
:104C30009B68984714F8011F0029F6D14A4B4B4C4A
:104C40001868FBF7ADFC2021D8F8000003689B68CA
:104C5000984714F8011F0029F6D1D9F800305B45B8
:104C60000BD9434CD8F8000014F8011B03689B686B
:104C70009847D9F800309C42F4D33E4C5D21D8F8D7
:104C8000000003689B68984714F8011F0029F6D1BB
:104C9000394B1C68217841B1D8F8000003689B6843
:104CA000984714F8011F0029F6D13448FBF740FC5F
:104CB00006EB85033D465B68002B7FF467AF029EE1
:104CC0005EB1039A3368114651F8042B02920391A6
:104CD00055E72B48FBF72CFCEAE7FBF7D1FC294C06
:104CE0000F48FBF725FC4621D8F8000003689B68B5
:104CF000984714F8011F0029F6D1154B1B781BB9F2
:104D00002148FBF715FCEFE62048FBF711FCEBE62A
:104D100040F68B039360A9E600000240840800205F
:104D2000F86F00089065000810650008AC65000881
:104D3000B065000824650008C865000838650008EB
:104D400024720008F465000834710008207100081E
:104D50001C130020F06C00084C6500085C6500081E
:104D60001C660008606500086C100020786500086B
:104D7000701000207C6500081813002020660008D1
:104D80002466000880650008306600083866000860
:104D9000704700BF0000000000000000000000009D
:104DA000034B00224FF4A47159601A609A60704757
:104DB00000130020000000000000000000000000C0
:104DC0000849094B10B40022CC2481E8140003F1F7
:104DD00010009960DA60186158611A609A6110BC1D
:104DE000704700BF000A0020D01200200000000021
:104DF0000849094B10B40022CC2481E8140003F1C7
:104E000010009960DA60186158611A609A6110BCEC
:104E1000704700BF000A00201812002000000000A8
:104E2000044B002204211B605B601961DA605A6147
:104E30009A6070472C08002000000000000000006D
:104E4000FFF7EEBF000000000000000000000000BF
:104E500038B5094D0446FBF70BFDFBF709FDFBF7E1
:104E600007FDFBF705FD2368AA690433236092F868
:104E700021305B07EFD538BD38120020000000005C
:104E800038B5084CA36993F821305A0708D4064D69
:104E90002846FBF735FEA36993F821305B07F7D569
:104EA00038BD00BF38120020F009002000000000CB
:104EB000074A10B52023946983F311880320FBF778
:104EC000E7FD636A002BF9D0002383F3118810BD3E
:104ED0003812002000000000000000000000000068
:104EE0002DE9F0410546FEF76BFF002480464FF0A8
:104EF000804742F20F7601212846FBF741FE7B6A8C
:104F0000A3EB0803B34204F10104F4D928460021BD
:104F1000FBF736FE2046BDE8F08100BF0000000030
:104F20002DE9F0412C4E2D4DB3692D4F99682D4A36
:104F30002D4CDFF8C4804FF0010E013128460023CC
:104F4000C7F800E000F04CFDB369206099684FF0AD
:104F5000020E4246023905F5A4700023C7F800E0AE
:104F600000F03EFDB369606099684246033905F57B
:104F70002470002300F034FDB369A06099684246B4
:104F8000043905F57670002300F02AFDB369E0606E
:104F900099684246053905F5A460002300F020FD1C
:104FA0000323206120683B60FFF79AFF0446FCF76B
:104FB000D7F804230D483B60FBF7DAFA2046FBF7ED
:104FC000EFFA0B48FBF7D4FA6000FBF7E9FA09485F
:104FD000BDE8F041FBF7ACBA38120020000A00200F
:104FE0006C10002001510008841000205870000847
:104FF0001C740008A06F0008C159000800000000E0
:1050000038B5144B144C9B69144A99681448013103
:1050100001250023256000F0E3FC124A0223106002
:105020002360FFF75DFF0546FCF79AF803230E485F
:105030002360FBF79DFA2846FBF7B2FA0B48FBF713
:1050400097FA6800FBF7ACFA0948BDE83840FBF76F
:105050006FBA00BF381200206C1000200151000808
:10506000000A002084100020587000081C740008FA
:10507000A06F000800000000000000000000000019
:1050800038B5144B144C9B69144A9968144801397B
:1050900001250023256000F0A3FC124A02231060C2
:1050A0002360FFF71DFF0546FCF75AF803230E485F
:1050B0002360FBF75DFA2846FBF772FA0B48FBF713
:1050C00057FA6800FBF76CFA0948BDE83840FBF76F
:1050D0002FBA00BF381200206C10002001510008C8
:1050E000000A002084100020587000081C7400087A
:1050F000A06F000800000000000000000000000099
:1051000070B520260025FBF7DBFC446A86F3118886
:105110002146FBF76DFC85F31188002CF3D170BD9F
:105120002DE9F0413A4E3B4B3B4C012232602025A9
:105130000422002085F3118821681960236080F320
:1051400011886168013A0B44F4D10223DFF8C8806A
:10515000324F336004254046FBF722FB003018BF76
:1051600001203946FBF774FA00283CD1013DF2D109
:10517000032329483360FBF713FBB0FA80F04009A2
:105180002749FBF765FA70BB224B042203F1100795
:10519000326020201A4680F31188216843F8041BEE
:1051A000226085F311889F42F4D10523DFF86880DF
:1051B0001A4F336004254046FBF7F2FA003018BF5F
:1051C00001203946FBF744FA68B9013DF3D10623C3
:1051D00011483360FBF7E4FAB0FA80F04009104957
:1051E000FBF736FA08B1BDE8F081072104220D4B28
:1051F0000948316025606260A360FBF7D1FAB0FA1C
:1052000080F040090849BDE8F041FBF721BA00BF32
:105210006C1000200812002018080020847200087A
:105220009072000851180008A072000800000000E9
:10523000F8B53F4D3F4B404A40490120286003F1FB
:105240000C072026002486F31188086810600A6085
:1052500084F311889F4202D053F8042BF3E7384BB4
:10526000384A9B6938489E68384C0323711E2B606E
:1052700000F0C6FDB11E2060354A364800F0C0FD82
:10528000F11E6060344A354800F0BAFD311FA0605D
:10529000334A344800F0B4FD334AE060711F3348AC
:1052A00000F0AEFD2368206104222A60002B3CD070
:1052B000606828B1A06818B1E068003018BF01200C
:1052C0002B49FBF7C5F900B1F8BD20692949B0FAAF
:1052D00080F04009FBF7BCF90028F5D105232B60CD
:1052E000FBF73EFF24492548FBF78AF90028EBD15C
:1052F0000623124F224E2B6004243846FBF750FA47
:10530000003018BF01203146FBF7A2F90028DBD19D
:10531000013CF2D10948FBF743FAB0FA80F04009AA
:105320001849BDE8F840FBF793B91846C8E700BF35
:105330006C10002074720008000A00200013002086
:1053400038120020986100089C7300088410002027
:1053500034630008A473000830630008AC730008CD
:10536000D4620008B4730008DC620008BC73000853
:10537000C4730008DC730008446300086862000816
:10538000F873000808740008000000000000000026
:10539000FEF736B80000000000000000000000002A
:1053A000F0B53F4B3F4C9B693F489E6885B0022358
:1053B00003A902AA2360FBF7F3FD0546A0F1010053
:1053C000B0FA80F040093949FBF742F908B105B05D
:1053D000F0BD032236492260364B374F721E4FF420
:1053E000A47000F0DDFC3860003018BF01203349A4
:1053F000FBF72EF90028EAD10422314B3149226013
:105400004FF4A470B21E00F0CBFC0346003018BF6E
:1054100001202A497B60FBF71BF90028D7D1F21E37
:10542000294B2A492A480526266000F0B9FC034684
:10543000B0FA80F0F0402749BB60FBF709F900287B
:10544000C5D106232360FBF78BFE23492348FBF7D6
:10545000D7F80028BBD1072301A96A461248236068
:10546000FBF79EFD281AB0FA80F01D494009FBF7B2
:10547000EFF80028ABD10398019B1A49C01AB0FA83
:1054800080F04009FBF7E4F80028A0D10298009BC7
:105490001549C01AB0FA80F04009FBF7D9F896E731
:1054A000381200206C100020D01200203473000845
:1054B0009C7300089861000884100020C4730008E1
:1054C00034630008A473000830630008AC7300085C
:1054D000C8000200DC73000844630008447300083D
:1054E00048730008607300087C7300080000000027
:1054F00070B5144C82B001236A4601A900202360D4
:10550000FBF74EFD1021104800F0D2FB064600309C
:1055100018BF01200D49FBF79BF880B905463046BE
:10552000FBF776FD02236FF0FF012846236000F0B1
:10553000BFFBB0FA80F040090549FBF789F802B0DB
:1055400070BD00BF6C100020181200200873000806
:105550001C730008000000000000000000000000B4
:105560002DE9F041C04CC14884B0012369460022B6
:105570002360FBF715FDA0F10100B0FA80F0BC49F3
:105580004009FBF765F810B104B0BDE8F0810223D3
:105590004FF44D61B548236000F08AFBB0FA80F00B
:1055A0004009B449FBF754F80028EDD1032310213A
:1055B000AE48236000F07CFB0546003018BF012098
:1055C000AD49FBF745F80028DED12846FBF720FD62
:1055D000042302A903AAA5482360FBF7E1FC0346C4
:1055E000A0F10100B0FA80F04009A4490193FBF753
:1055F0002FF80028C8D10298A1490F2894BF002095
:105600000120FBF725F80028BED10298039B9C4996
:10561000C01AB0FA80F04009FBF71AF805460028D6
:10562000B2D1052310219148236000F041FB1021E5
:1056300080468E4800F03CFB102107468B4800F066
:1056400037FB06464046FBF7E3FC3846FBF7E0FC39
:105650003046FBF7DDFC2A4601A98448FBF7A0FC95
:10566000A0F10100B0FA80F081494009FAF7F0FF9B
:105670000546002888D1062310217C48236000F0CD
:1056800017FB10210646794800F012FB102107464F
:10569000764800F00DFBFBF7BBFC3846FBF7B8FC87
:1056A0003046FBF7B5FC2A4601A97048FBF778FCA9
:1056B000A0F10100B0FA80F06D494009FAF7C8FF87
:1056C000054600287FF460AF072311216748236057
:1056D00000F0EEFA10210646644800F0E9FA0746A9
:1056E0003046FBF795FC2A4601A96048FBF758FCB9
:1056F000A0F10208D8F10000624940EB0800FAF777
:10570000A7FF054600287FF43FAF1021574800F05F
:10571000CFFA2A46064601A95448FBF741FC012866
:1057200000F09F80002201A95048FBF739FCA0F14E
:10573000020CDCF1000040EB0C004D49FAF788FF49
:10574000054600287FF420AF3846FBF761FC304661
:10575000FBF75EFC2A4601A94448FBF721FC00F157
:10576000FF3EDEF10000424940EB0E00FAF770FF09
:10577000054600287FF408AF082310213B4823602A
:1057800000F096FA10210746384800F091FA0646D4
:105790003846FBF73DFC2A4601A93448FBF700FCDC
:1057A000871E784237497841FAF752FF05460028AC
:1057B0007FF4EAAE20212D4800F07AFAFBF728FCAE
:1057C0003046FBF725FC2A4601A92848FBF7E8FBF1
:1057D000451E684226496841FAF73AFF024600280A
:1057E0007FF4D2AE092301A920482360FBF7D8FB40
:1057F00001991E4800F05CFA064600301E4918BFA9
:105800000120FAF725FF024600287FF4BDAE0146CD
:105810001648FBF7C5FBB0FA80F040091A49FAF7C1
:1058200017FF054600287FF4AFAE3046FBF7F0FBCC
:105830002A4601A90A230D482360FBF7B1FB421E4B
:10584000504250410A49FAF703FF00287FF49CAE0A
:105850000198009B0D49C31A58425841FAF7F8FEC7
:1058600092E6012069E700BF6C10002018120020AA
:10587000347300081C73000808730008BC72000829
:10588000D0720008E8720008C4610008F8720008CD
:1058900008B5074B01224FF47A701A6000F088FBBC
:1058A000B0FA80F040090349BDE80840FAF7D0BEDD
:1058B0006C10002090720008000000000000000042
:1058C0002DE9F047DFF8F4A0384D394C0123CAF830
:1058D0000030A94604264FF02008002788F31188DD
:1058E000EB6823604846EC60FBF74AFCFBF758F88E
:1058F00087F311882B69013E1C44EFD102232D4E02
:10590000CAF800300424002000F052FB003018BF19
:1059100001203146FAF79CFE002844D1013CF2D127
:105920000323CAF8003000F043FBB0FA80F04009CE
:105930002149FAF78DFEB0BB1D4EDFF870800423BD
:1059400006F11009CAF800302027334687F3118882
:10595000EA6846F8042B4046EB60FBF711FCFBF7C6
:105960001FF884F31188B145EFD10523114DCAF812
:1059700000300424002000F01BFB003018BF012081
:105980002946FAF765FE70B9013CF3D10623CAF83F
:10599000003000F00DFBB0FA80F040090649BDE888
:1059A000F047FAF755BEBDE8F08700BF2C0800208D
:1059B0000812002084720008907200086C10002009
:1059C000FBF716BC00000000000000000000000013
:1059D000014B5B6883607047001000E0000000002E
:1059E000F8B50446202080F311881F4FC4F8DC204E
:1059F0007869C4F8E03004F1DC061C4DC4F80C6191
:105A00000222012304F58076C4F8FC5084F820219A
:105A1000002584F82231DFF858E0C4F8081104F5B5
:105A2000967304F59472C4F83C11C4F81401C4F8D8
:105A30001C41C4F818E184F82151C4F83851C4F865
:105A40003451C4F81071294606613046C4F8282143
:105A5000C4F82C31C4F830317E61FAF7C9FF85F300
:105A600011883046F8BD00BF38120020A50200089A
:105A70003C7400080000000000000000000000006E
:105A8000202383F31188104B99684A1E002A9A60DC
:105A900004DB0020002383F31188704780B10B4A98
:105AA00010B592695C68536282E818000146226072
:105AB00005205A60FBF73CFC002383F3118810BDDE
:105AC00099604FF0FF30E5E70C13002038120020FA
:105AD00038B5202383F31188154CA3680133002BBC
